:100000000C94030E0C94340E0C94340E0C94340E99
:100010000C94340E0C94340E0C94340E0C94340E58
:100020000C94340E0C94340E0C94340E0C94340E48
:100030000C94340E0C94340E0C94340E0C94340E38
:100040000C94340E0C94D7830C94340E0C94340E10
:100050000C94340E0C94340E0C9407780C941E7689
:100060000C94340E0C9421840C9417840C94340E4C
:100070000C94340E0C94340E0C94340E0C94340EF8
:100080000C94340E0C94340E0C94340E0C94340EE8
:100090000C94340E0C94340E0C94340E0C94340ED8
:1000A0000C94340E0C94340E0C94340E0C94340EC8
:1000B0000C94340E0C94340E0C94340E0C94340EB8
:1000C0000C94340E0C94340E0C94340E0C94340EA8
:1000D0000C94340E0C94340E0C94340E0C94340E98
:1000E0000C94340E084AD73B3BCE016E84BCBFFD56
:1000F000C12F3D6C74319ABD56833DDA3D00C77FF8
:1001000011BED9E4BB4C3E916BAAAABE0000008090
:100110003F05A84CCDB2D44EB93836A9020C50B91F
:10012000918688083CA6AAAA2ABE000000803F004B
:100130000C94AB0E0C94930E0C94C20F0C94740E92
:100140000C94AE0F0C94A10E0C94700E0C948F0EA8
:100150000C94B80F0C944B840C949E0F0C94850E49
:100160000C94AF0E0C94730F0C94F90F0C94780E42
:100170000C946A0E0C94800F0C94AA0E0C947C0EB6
:100180000C94A50E0C947B0F0C94E50F0C940D10A1
:100190000C948A0F0C94A60F0C947F0E0C94DB0F1A
:1001A0000C94EF0F0C9403100C94890E0C94940F84
:1001B0000C949D0E0C94970E0C94CC0F4E414E490E
:1001C0004E495459494E46CDCCCC3D0AD7233C1715
:1001D000B7D13877CC2B329595E6241FB14F0A0062
:1001E0000020410000C84200401C4620BCBE4CCA52
:1001F0001B0E5AAEC59D74434F4D4D554E4943415C
:1002000054494F4E0044525952554E004552524F98
:10021000525300494E464F004543484F00457272C5
:100220006F722077726974696E6720746F2045451C
:1002300050524F4D210A00627573793A20706175F2
:1002400073656420666F7220696E7075740A00624F
:100250007573793A2070617573656420666F7220DA
:10026000757365720A00627573793A2070726F63F4
:10027000657373696E670A002121204B494C4C203D
:1002800063617573656420627920746F6F206D758A
:10029000636820696E6163746976652074696D6551
:1002A000202D2063757272656E7420636F6D6D61B1
:1002B0006E643A20005072696E7465722073746FB8
:1002C000707065642064756520746F206572726F4C
:1002D00072732E2046697820746865206572726F8B
:1002E0007220616E6420757365204D393939207430
:1002F0006F20726573746172742E202854656D705E
:1003000065726174757265206973207265736574B6
:100310002E205365742069742061667465722072A2
:10032000657374617274696E67290A004E6F2043A9
:100330006865636B73756D2077697468206C696E8E
:1003400065206E756D6265722C204C617374204C53
:10035000696E653A2000636865636B73756D206D27
:1003600069736D617463682C204C617374204C69EF
:100370006E653A20004C696E65204E756D6265723F
:10038000206973206E6F74204C617374204C696E09
:1003900065204E756D6265722B312C204C61737433
:1003A000204C696E653A20004D313130006563683C
:1003B0006F3A004572726F723A0020496E76616C36
:1003C0006964206578747275646572200043617099
:1003D0003A0047322F4733206261642070617261B6
:1003E0006D65746572730A00526573656E643A20B8
:1003F0000023646566696E652044454641554C544A
:100400005F004B6420004B6920004B702000504976
:1004100044204175746F74756E652066696E6973EA
:10042000686564212050757420746865206C617360
:1004300074204B702C204B6920616E64204B64202B
:10044000636F6E7374616E74732066726F6D206279
:10045000656C6F7720696E746F20436F6E66696795
:1004600075726174696F6E2E680A005049442041AC
:1004700075746F74756E65206661696C65642120A2
:1004800074696D656F75740A005049442041757434
:100490006F74756E65206661696C656421205465B2
:1004A0006D706572617475726520746F6F20686914
:1004B00067680A00204B643A2000204B693A20000C
:1004C000204B703A20000A20436C617373696320EB
:1004D000504944200A000A204E6F206F76657273DF
:1004E000686F6F740A002054753A2000204B753AEB
:1004F0002000206D61783A2000206D696E3A20005E
:1005000020643A200020626961733A200050494417
:10051000204175746F74756E652073746172740A0E
:1005200000504944204175746F74756E6520666192
:10053000696C656421204261642065787472756419
:100540006572206E756D6265720A0020627974654D
:10055000733B20637263200053657474696E677324
:100560002053746F726564202800454550524F4DEA
:10057000206461746173697A65206572726F722E8E
:100580000A002073746F7265642073657474696EF9
:10059000677320726574726965766564202800202F
:1005A0002863616C63756C6174656429210A00209D
:1005B000213D2000454550524F4D20435243206D70
:1005C00069736D61746368202D202873746F726580
:1005D000642920002053697A653A2000496E6465D9
:1005E000783A2000204D61726C696E3D563736298D
:1005F0000A00454550524F4D2076657273696F6E03
:10060000206D69736D617463682028454550524FB1
:100610004D3D0048617264636F64656420446566A3
:1006200061756C742053657474696E6773204C6FC8
:10063000616465640A003B20003A0A0020204D39BD
:100640003030204B004C696E6561722041647661E8
:100650006E63653A0020204D3835312058005A2D00
:1006600050726F6265204F666673657400204900A2
:1006700020204D33303420500020204D33303120A5
:1006800050005049442073657474696E67733A0072
:1006900020204D323036205800486F6D65206F663F
:1006A000667365743A00204A0020204D32303520B0
:1006B0004200416476616E6365643A20423C6D6934
:1006C0006E5F7365676D656E745F74696D655F7588
:1006D000733E20533C6D696E5F666565647261743C
:1006E000653E20543C6D696E5F74726176656C5F27
:1006F00066656564726174653E204A3C6A756E6326
:100700005F6465763E0020204D3230342050004139
:100710006363656C65726174696F6E2028756E69BC
:1007200074732F7332293A20503C7072696E745F73
:10073000616363656C3E20523C72657472616374E0
:100740005F616363656C3E20543C74726176656CD6
:100750005F616363656C3E0020204D32303120586C
:10076000004D6178696D756D20416363656C6572DC
:100770006174696F6E2028756E6974732F733229E6
:100780003A0020204D3230332058004D6178696D99
:10079000756D206665656472617465732028756E79
:1007A0006974732F73293A005374657073207065F0
:1007B0007220756E69743A0020204D32303020442A
:1007C000300A0020204D323030204400204469732C
:1007D00061626C65640A0046696C616D656E7420C7
:1007E00073657474696E67733A0020286D6D290013
:1007F0002020473231202020203B20556E69747321
:1008000020696E206D6D006F70656E00545249470F
:100810004745524544007A5F6D696E00795F6D69A6
:100820006E00785F6D696E005265706F7274696EEC
:100830006720656E6473746F702073746174757370
:100840000A005761726E696E673A20486F6D696E73
:10085000672042756D702044697669736F72203C21
:1008600020310A0020436F756E7420583A0062658B
:1008700064002C2073797374656D2073746F7070CD
:10088000656421204865617465725F49443A2000BF
:1008900048656174696E67204661696C65640048EB
:1008A000656174696E67206661696C6564005448AF
:1008B00045524D414C2052554E41574159005468C4
:1008C00065726D616C2052756E6177617900457259
:1008D000723A204D415854454D50004D41585445B1
:1008E0004D50207472696767657265640045727265
:1008F0003A204D494E54454D50004D494E54454DBA
:10090000502074726967676572656400202F00204B
:1009100042403A0020403A002020506C616E6E65E3
:100920007242756666657242797465733A2000207A
:1009300046726565204D656D6F72793A2000436F90
:100940006D70696C65643A204A756E2020332032E0
:100950003032360A00204C61737420557064617423
:1009600065643A20323032302D30332D3136207CE0
:1009700020417574686F723A202870696E677569D6
:100980006E70666C6567657226466F6F6446696750
:10099000687465722C2041535758312D46572D4DA0
:1009A0004F44290A00322E302E352E310A004D6177
:1009B000726C696E0020536F6674776172652052A5
:1009C000657365740A00205761746368646F6720FB
:1009D00052657365740A002042726F776E206F75DE
:1009E000742052657365740A002045787465726ED0
:1009F000616C2052657365740A00506F776572559B
:100A0000700A00656E6473746F7073206869743A5D
:100A100020006F6B002028302D31302900207661B6
:100A20006C7565206F7574206F662072616E6765E6
:100A300000416476616E6365204B3D0020746F2039
:100A4000003F5A206F7574206F662072616E676573
:100A50002028003F59206F7574206F662072616EE8
:100A6000676520282D003F58206F7574206F662021
:100A700072616E676520282D0050726F6265204F8D
:100A80006666736574205800454550524F4D204F9F
:100A90004B0A00486F6D652025732573257320462A
:100AA0006972737400546F6F206661722066726F92
:100AB0006D207265666572656E636520706F696E24
:100AC000740A006469730043290A0061626C6564FA
:100AD00020286D696E2074656D702000436F6C6412
:100AE00020657874727564657320617265200020DA
:100AF000643A0020693A0020703A00496E76616CD1
:100B000069642065787472756465720A0050726F4A
:100B10006265204F6666736574205A0050726F627A
:100B200065204F66667365745A3A200020466C6FE4
:100B3000773A200046523A0020204D61783A200052
:100B400020204D696E3A2000536F667420656E64F4
:100B500073746F70733A20003F4A206F7574206F72
:100B6000662072616E67652028302E303120746FE8
:100B700020302E33290A00205400205200416363A4
:100B8000656C65726174696F6E3A2050002F2F207A
:100B9000004348414D4245525F54454D50455241F6
:100BA00054555245004D4F54494F4E5F4D4F4445AB
:100BB0005300544845524D414C5F50524F544543A9
:100BC00054494F4E004155544F5245504F52545F77
:100BD00053445F5354415455530050524F4D505459
:100BE0005F535550504F525400454D455247454E66
:100BF00043595F50415253455200434153455F4C66
:100C0000494748545F4252494748544E4553530060
:100C1000544F47474C455F4C494748545300534F46
:100C20004654574152455F504F574552004255492F
:100C30004C445F50455243454E54004C4556454C3C
:100C4000494E475F44415441005A5F50524F42451C
:100C5000004155544F4C4556454C005052494E5456
:100C60005F4A4F420050524F47524553530041553F
:100C7000544F5245504F52545F54454D5000564FBB
:100C80004C554D455452494300454550524F4D0037
:100C900042494E4152595F46494C455F5452414E7C
:100CA000534645520053455249414C5F584F4E5FA1
:100CB000584F4646004649524D574152455F4E41B6
:100CC0004D453A4D61726C696E20322E302E352EB4
:100CD0003120284769744875622920534F55524383
:100CE000455F434F44455F55524C3A687474707386
:100CF0003A2F2F6769746875622E636F6D2F4D618F
:100D0000726C696E4669726D776172652F4D6172A2
:100D10006C696E2050524F544F434F4C5F564552B2
:100D200053494F4E3A312E30204D414348494E45AC
:100D30005F545950453A3344205072696E7465725D
:100D40002045585452554445525F434F554E543AEE
:100D50003120555549443A63656465326132662DE8
:100D6000343161322D343734382D396231322D63CC
:100D700035356336326633363766660A004D3131B3
:100D8000332053006F66660044454255473A0020C1
:100D9000573A0050726F7465637465642050696ED1
:100DA0000A0025697920256964202569682025695C
:100DB0006D20256973005072696E742074696D65C9
:100DC0003A200050726F62696E67204661696C65F7
:100DD000640A00205A3A200020593A2000426564F3
:100DE00020583A200020746F6F206C6F6E6720656A
:100DF0007874727573696F6E2070726576656E7443
:100E000065640A0020636F6C642065787472757382
:100E1000696F6E2070726576656E7465640A002273
:100E20000A00556E6B6E6F776E20636F6D6D616E2D
:100E3000643A202200204500205900204D393220FC
:100E400058005072696E7465722068616C746564D4
:100E50002E206B696C6C28292063616C6C656421A1
:100E60000A0020453A00205A3A0020593A00363705
:100E700026033C3D380E2E303E1224221E1A1C182A
:100E800008440A07430809070001000096430000D0
:100E900096430000C843000000000000A0C000000E
:100EA0000000000096430000964300004842000006
:100EB0002042F43DA042F43DA04296E3C7430080A7
:100EC000DE43D0070000D0070000640000001027B8
:100ED00000000202040000A0400000A0400000004A
:100EE0004000000001000000010000800055555541
:100EF000000000400033333300AAAA2A004992249C
:100F00000000002000C7711C0099991900D14517F5
:100F100000555515003BB113002449120011111161
:100F200000000010000F0F0F00E3380E0043790D92
:100F300000CCCC0C00C3300C00E8A20B0064210BE9
:100F400000AAAA0A00703D0A009DD80900427B0948
:100F50000092240900DCD3080088880800104208A9
:100F60000000000800F0C1070087870700755007E0
:100F700000711C07003EEB0600A1BC06006990064C
:100F80000066660600703E06006118060017F4054C
:100F90000074D105005BB00500B2900500627205D7
:100FA000005555050078390500B81E0500050505F2
:100FB000004EEC040087D40400A1BD040090A704F7
:100FC0000049920400C17D0400EE690400C7560484
:100FD00000444404005C3204000821040041100471
:100FE00000000004003FF00300F8E0030026D203F5
:100FF00000C3C30300CCB503003AA803000A9B0357
:1010000000388E0300C08103009F750300D0690380
:1010100000505E03001D53030034480300913D035C
:10102000003333030016290300381F03009715030C
:1010300000300C0300030303000BFA020049F10225
:1010400000BAE802005CE002002DD802002DD002B8
:101050000059C80200B0C0020031B90200DAB10282
:1010600000AAAA0200A0A30200BC9C0200FA9502FA
:10107000005C8F0200DF88020082820200457C0251
:10108000002776020027700200436A02007C640297
:1010900000D05E02003F590200C8530200FFFDFC71
:1010A000FAF8F6F4F2F0EEECEAE9E7E5E3E1E0DE87
:1010B000DCDAD9D7D5D4D2D0CFCDCBCAC8C7C5C337
:1010C000C2C0BFBDBCBAB9B7B6B4B3B2B0AFADACB5
:1010D000AAA9A8A6A5A4A2A1A09E9D9C9A9998970A
:1010E00095949392908F8E8D8B8A8988878684833E
:1010F0008281807F7E7D7B7A797877767574737252
:1011000071706F6E6D6C6B6A696867666564636247
:1011100061605F5E5D5C5B5A595858575655545331
:10112000525150504F4E4D4C4B4A4A494847464603
:10113000454443424241403F3E3E3D3C3B3B3A39C1
:10114000383837363535343332323130302F2E2E71
:101150002D2C2B2B2A292928272726252524232314
:1011600022212120201F1E1E1D1C1C1B1B1A1919A9
:101170001818171616151514131312121111100F33
:101180000F0E0E0D0D0C0C0B0A0A090908080707B3
:101190000606050504040303020201000024F4D43A
:1011A0003050C38E20C2A24017828B7011127A91E8
:1011B0000D816CD90AA861E108C7586607615143DF
:1011C000061E4B5D05C145A7041A411104093D984F
:1011D00003713931034036DB0265339102D4305458
:1011E00002802E1D02632CEE01752AC501B028A0D5
:1011F00001102781018F2564012B244B01E022344B
:1012000001AC211F018D200D01801FFC00841EED0B
:1012100000971DDF00B81CD200E61BC600201BBCD7
:1012200000641AB200B219A8000A19A0006A18993D
:1012300000D117910040178B00B516840031167E3F
:1012400000B31579003A157300C7146F0058146A7B
:1012500000EE1366008813630025135E00C7125B5F
:10126000006C12570015125400C111510070114F3B
:101270000021114B00D61049008D10470046104444
:101280000002104200C00F4000800F3E00420F3CA1
:1012900000060F3B00CB0E3800930E37005C0E3576
:1012A00000270E3400F30D3200C10D3100900D30D7
:1012B00000600D2E00320D2D00050D2C00D90C2BD9
:1012C00000AE0C2900850C29005C0C2700350C278A
:1012D000000E0C2600E80B2400C40B2400A00B23F6
:1012E000007D0B23005A0B2100390B2100180B2025
:1012F00000F80A1F00D90A1E00BB0A1E009D0A1D25
:1013000000800A1D00630A1C00470A1B002C0A1BF0
:1013100000110A1A00F7091A00DD091900C4091999
:1013200000AB091900920917007B0918006309171F
:10133000004C09160036091600200916000A091586
:1013400000F5081500E0081400CC081400B80814D3
:1013500000A4081400900813007D0812006B081305
:101360000058081200460812003408110023081122
:10137000001208110001081100F0071000E007102A
:1013800000D0071000C0071000B0070F00A1071021
:101390000091070E0083070F0074070F0065070E0A
:1013A0000057070E0049070E003B070D002E070EE1
:1013B0000020070D0013070D0006070D00F9060CAD
:1013C00000ED060D00E0060C00D4060C00C8060C6B
:1013D00000BC060C00B0060C00A4060B0099060C1D
:1013E000008D060B0082060B0077060B006C060BC7
:1013F0000061060A0057060B004C060A0042060A66
:101400000038060A002E060A0024060A001A060AF8
:10141000001006090007060A00FD050900F4050989
:1014200000EB050900E2050900D9050900D005090E
:1014300000C7050900BE050900B5050800AD05088F
:1014400000A50509009C050800940508008C050806
:1014500000840508007C050800740508006C050779
:1014600000650508005D050700560508004E0507E4
:10147000004705070040050800380507003105074B
:10148000002A050700230507001C050600160507AE
:10149000000F0507000805060002050700FB04060B
:1014A00000F5040700EE040600E8040600E2040765
:1014B00000DB040600D5040600CF040600C90406BC
:1014C00000C3040600BD040600B7040600B104050D
:1014D00000AC040600A6040600A00405009B040658
:1014E0000095040500900406008A040500850405A3
:1014F00000800406007A04050075040500700405E8
:10150000006B04050066040500610405005C040529
:101510000057040500520405004D04050048040569
:1015200000430405003E0404003A040500350405A8
:1015300000300404002C04050027040400230405E3
:10154000001E0404001A040400160405001104041B
:10155000000D040400090405000404040000040450
:1015600000FC030400F8030400F4030400F0030487
:1015700000EC030400E8030400E4030400E00304B7
:1015800000DC030400D8030400D4030400D00304E7
:1015900000CC030400C8030300C503030024F404C3
:1015A000D9201BC40C5C0E9804C4095F0265077146
:1015B00001F405F900FB04B30048048700C1036986
:1015C000005803550003034500BE023A008402316F
:1015D0000053022A002902250004022000E4011C15
:1015E00000C8011900AF011700980114008401130D
:1015F00000710110006101100051010E0043010D46
:101600000036010B002B010B0020010B0015010916
:10161000000C01090003010800FB000800F30008AA
:1016200000EB000700E4000600DE000600D800061C
:1016300000D2000600CC000500C7000500C200056E
:1016400000BD000400B9000400B5000400B10004AE
:1016500000AD000400A9000400A5000300A20003DF
:10166000009F0004009B0003009800030095000207
:101670000093000300900003008D0002008B000324
:10168000008800020086000200840003008100023E
:10169000007F0002007D0002007B00020079000252
:1016A0000077000100760002007400020072000161
:1016B00000710002006F0002006D0001006C00026A
:1016C000006A000100690002006700010066000175
:1016D0000065000100640002006200010061000179
:1016E00000600001005F0002005D0001005C00017D
:1016F000005B0001005A0001005900010058000180
:10170000005700010056000100550001005400017F
:10171000005300000053000100520001005100017D
:1017200000500001004F0001004E0000004E00017B
:10173000004D0001004C0001004B0000004B000177
:10174000004A000100490001004800000048000173
:10175000004700010046000000460001004500006F
:101760000045000100440001004300000043000167
:101770000042000000420001004100000041000161
:1017800000400001003F0000003F0001003E00005B
:10179000003E0001003D0000003D0001003C000053
:1017A000003C0000003C0001003B0000003B000149
:1017B000003A0000003A0001003900000039000141
:1017C0000038000000380000003800010037000039
:1017D000003700010036000000360000003600012E
:1017E0000035000000350000003500010034000025
:1017F000003400000034000100330000003300001A
:10180000003300010032000000320000003200010D
:101810000031000000310000003100010030000004
:101820000030000000300001002F0000002F0000F9
:10183000002F0000002F0001002E0000002E0000ED
:10184000002E0001002D0000002D0000002D0000E2
:10185000002D0001002C0000002C0000002C0000D6
:10186000002C0001002B0000002B0000002B0000CA
:10187000002B0001002A0000002A0000002A0000BE
:10188000002A0001002900000029000000290000B2
:1018900000290000002900010028000000280000A5
:1018A0000028000000280000002800010027000098
:1018B000002700000027000000270000002700018B
:1018C0000026000000260000002600000026000080
:1018D0000026000100250000002500000025000072
:1018E0000025000000250000002500010024000064
:1018F0000024000000240000002400000024000157
:10190000002300000023000000230000002300004B
:10191000002300000023000000230001002200003B
:10192000002200000022000000220000002200002F
:101930000022000100210000002100000021000021
:101940000021000000210000002100000021000112
:101950000020000000200000002000000020000007
:1019600000200000002000000020000000200001F6
:10197000001F0000001F0000001F0000001F0000EB
:10198000001F0000001F0000001F0001001E0000DB
:10199000001E0000001E0000001E000000232C009E
:1019A00000B8220000561800003A0F0000B80800E6
:1019B00000B1040000710200003E01000070012C23
:1019C0000190012701B0012201C0011D01F00118A1
:1019D000011002130130020E01600209019002049D
:1019E00001C002FF000003FA004003F5008003F08D
:1019F00000D003EB002004E6007004E100E004DC0A
:101A0000004005D700C005D2004006CD00D006C872
:101A1000008007C3003008BE00F008B900C009B458
:101A200000B00AAF00B00BAA00D00CA500000EA0B9
:101A300000500F9B00C01096005012910000148CB3
:101A400000C0158700B0178200B0197D00D01B7848
:101A500000001E730040206E0090226900F0246494
:101A60000040275F0090295A00E02B5500102E50AF
:101A70000020304B0010324600E033410090353CEE
:101A8000001037370070383200A0392D00B03A28E6
:101A900000A03B2300603C1E00103D1900903D1447
:101AA00000103E0F00703E0A00C03E0500003F00DF
:101AB00000403FFBFF803FF6FFC03FF1FF000021E9
:101AC00000240027002A002D00300033000101000F
:101AD00000040107010A0100002200250028002B54
:101AE000002E003100340002010000050108010B46
:101AF00001000020002300260029002C002F0032C6
:101B000000000100000301060109010505050507A4
:101B10000508080808020202020A0A080804040468
:101B20000401010101010101010303030303030394
:101B300003040707070C0C0C0C0C0C0C0C02020223
:101B40000206060606060606060B0B0B0B0B0B0B16
:101B50000B010210202008081020401020408002B5
:101B600001020108040201010204081020408080E3
:101B70004020100804020180040201804020100867
:101B8000040201080402010102040810204080013F
:101B90000204081020408000000A0B02090C0D0E00
:101BA000080703040100000000000000000000001E
:101BB0000000000000000000000000000000000025
:101BC00000000012111000000000000000000000E2
:101BD00000000000000000000000000000180213D8
:101BE000020C020502F70100007042000070420082
:101BF00000204100009643008098430000C843FF46
:101C0000FFFF00004B8411241FBECFEFD1E2DEBFE7
:101C1000CDBF00E00CBF13E0A0E0B2E0EEE1F7E2E0
:101C200001E00BBF02C007900D92A030B107D9F7B9
:101C30002EE0A0E0B3E001C01D92A533B207E1F7AA
:101C40001EE0C3E0DEE000E006C021970109802F1E
:101C5000FE010E943E90C230D10780E00807A9F73C
:101C60000E948F840C948D930C940000FC01DB0186
:101C70008C9120813181382798E0A901220F331FF0
:101C800057FD05C09150C9F7318320830895B1E213
:101C90002B27B0E13B27F6CF8150823108F05AC0A4
:101CA000E82FF0E08827E85AF14F8F4F0C943E90D0
:101CB000780E7C0E6A0E700E740EAA0E7F0E850EC4
:101CC000890E8F0E930E970E9D0EA10EAA0EA50ED5
:101CD000AB0EAF0E809180008F77809380000895C7
:101CE000809180008F7DF9CF80918000877FF5CF34
:101CF00084B58F7784BD089584B58F7DFBCF8091A7
:101D0000B0008F778093B00008958091B0008F7DF0
:101D1000F9CF809190008F77809390000895809103
:101D200090008F7DF9CF80919000877FF5CF8091D3
:101D3000A0008F778093A00008958091A0008F7DF0
:101D4000F9CF8091A000877FF5CF809120018F7718
:101D5000809320010895809120018F7DF9CF80919B
:101D60002001877FF5CFCF93DF93282F30E0F90153
:101D7000E956F44E8491F901EF5AF44ED491F901E9
:101D8000E55FF44EC491CC23A1F081110E944C0E6A
:101D9000EC2FF0E0EE0FFF1FEF50F54EA591B49140
:101DA000EC91ED2381E090E009F480E0DF91CF91A8
:101DB000089580E090E0FACF1F93CF93DF93282F10
:101DC00030E0F901E956F44E8491F901EF5AF44EEE
:101DD000D491F901E55FF44EC491CC23A9F0162FFC
:101DE00081110E944C0EEC2FF0E0EE0FFF1FE95224
:101DF000F54EA591B4918FB7F894EC91111108C0EC
:101E0000D095DE23DC938FBFDF91CF911F91089592
:101E1000DE2BF8CFCF93DF9390E0FC01EF5AF44E26
:101E20002491855F944EFC0184918823D1F090E049
:101E3000880F991FFC01E354F54EA591B491FC0164
:101E4000E952F54EC591D49161110EC09FB7F89437
:101E50008C91E22FE0958E238C932881E223E883F6
:101E60009FBFDF91CF9108958FB7F894EC91E22B4B
:101E7000EC938FBFF6CF1F93CF93DF93182FEB0117
:101E800061E00E940A0F209739F460E0812FDF9112
:101E9000CF911F910C94DC0ECF3FD10511F461E07E
:101EA000F5CFE12FF0E0E956F44EE491E150E23154
:101EB00008F0B3C0F0E08827EF59F04F8F4F0C9433
:101EC0003E90730F7B0F800F8A0F940F0D109E0FA3
:101ED000A60FAE0FB80FC20FCC0FDB0FE50F0D1022
:101EE000EF0FF90F031084B5806884BDC7BDDF9183
:101EF000CF911F91089584B5806284BDC8BDF7CF8E
:101F000080918000806880938000D0938900C09386
:101F10008800EDCF80918000806280938000D09314
:101F20008B00C0938A00E3CF80918000886080930B
:101F30008000D0938D00C0938C00D9CF8091B000E9
:101F400080688093B000C093B300D1CF8091B0007F
:101F500080628093B000C093B400C9CF809190009C
:101F6000806880939000D0939900C0939800BFCF71
:101F700080919000806280939000D0939B00C093EA
:101F80009A00B5CF80919000886080939000D093A4
:101F90009D00C0939C00ABCF8091A000806880938F
:101FA000A0008091A0008F7B8093A000D093A90017
:101FB000C093A8009CCF8091A00080628093A00075
:101FC000D093AB00C093AA0092CF8091A00088600C
:101FD0008093A000D093AD00C093AC0088CF8091D7
:101FE0002001806880932001D0932901C0932801AB
:101FF0007ECF80912001806280932001D0932B01BD
:10200000C0932A0174CF80912001886080932001C1
:10201000D0932D01C0932C016ACFC038D1050CF0AC
:102020003ECF33CF3FB7F89480918B0690918C06CA
:10203000A0918D06B0918E0626B5A89B05C02F3FB6
:1020400019F00196A11DB11D3FBFBA2FA92F982FDE
:102050008827BC01CD01620F711D811D911D42E0D9
:10206000660F771F881F991F4A95D1F708958F92A1
:102070009F92AF92BF92CF92DF92EF92FF926B014D
:102080007C010E9412104B015C01C114D104E104D7
:10209000F104B9F00E941210681979098A099B09A4
:1020A000683E73408105910580F321E0C21AD10892
:1020B000E108F10888EE880E83E0981EA11CB11C8F
:1020C000E4CFFF90EF90DF90CF90BF90AF909F90C4
:1020D0008F9008952FB7F8946091870670918806C5
:1020E0008091890690918A062FBF0895CF93DF9340
:1020F000C091D40DD091D50D209751F120E030E062
:10210000A9016091D00D7091D10D8091D20D909167
:10211000D30D0E9447900E94B3916E5F7F4F24972A
:102120006C177D07ACF47093C70D6093C60D0E94C9
:102130006A10605E714B8F4F9F4F6093C80D709314
:10214000C90D8093CA0D9093CB0DDF91CF91089567
:102150001092C80D1092C90D1092CA0D1092CB0D9D
:10216000F4CF8091D40D9091D50D8635910554F41E
:1021700081E02091BD063091BE06263031051CF469
:1021800080E0089581E00895CF93DF93C091BD066C
:10219000D091BE06209729F16091B9067091BA06D8
:1021A0008091BB069091BC060E94B3916E5F7F4FF9
:1021B00024976C177D07ACF47093EB046093EA04EA
:1021C0000E946A10605A75418F4F9F4F6093EC04D4
:1021D0007093ED048093EE049093EF04DF91CF9120
:1021E00008951092EC041092ED041092EE041092F7
:1021F000EF04F4CFCF93DF931092F804C091240240
:10220000D09125022F971C161D0614F4D0E0C0E0D3
:10221000D093D50DC093D40D0E9476101092BE06B7
:102220001092BD060E94C410D093D50DC093D40D5A
:102230000E9476101092D60D2C981092BE06109225
:10224000BD061092BF06809102018072809300014A
:10225000DF91CF9108958F929F92AF92BF92CF92CC
:10226000DF92EF92FF920F931F93CF93DF93B0E42F
:10227000A0E06A2F70E0AB014B0F511D55954795BB
:10228000411119C0EFEBF9E165917491072E000C33
:10229000880B990B0E94E38BDF91CF911F910F91D7
:1022A000FF90EF90DF90CF90BF90AF909F908F9076
:1022B0000895B42FE0CFA41711F0B41303C0EBEBD3
:1022C000FAE1E2CF9A0121503109220F331F220F88
:1022D000331FF901E354F64EE590F490F901EF5302
:1022E000F64EC591D4918E159F051CF3A42FC817E7
:1022F000D9070CF4BECFF901E154F64E05911491C3
:10230000F901ED53F64EC590D490BC016E197F09CA
:10231000072E000C880B990B0E94E38B4B015C018C
:10232000B601601B710B072E000C880B990B0E94E5
:10233000E38B9B01AC01C501B4010E94428C4B01AF
:102340005C01BE016E197F09072E000C880B990BEA
:102350000E94E38B9B01AC01C501B4010E94419135
:102360006B017C01B801110F880B990B0E94E38B64
:102370009B01AC01C701B6010E9447908DCFCF935E
:10238000DF93C2E0DCE120E030E048E452E4609119
:10239000D00D7091D10D8091D20D9091D30D0E94EE
:1023A000A79287FF17C080E0FE01C491209102012F
:1023B00090E0B0E0A0E004C0B695A795979587950A
:1023C000CA95D2F780FD0EC0207120930001DF91E5
:1023D000CF910895FE01949181E001C0880F9A95F4
:1023E000EAF7E2CF2095F0CF8091B104882339F04D
:1023F00060912C0E70912D0E80912E0E089560E04C
:1024000070E080E00895BC012091A2043091A30403
:102410004091A2045091A3042417350731F481E0C0
:102420002617370709F080E008959A01F1CFEF925F
:10243000FF920F931F93E0920D03F0920E0300930F
:102440000F03109310036093110370931203809392
:1024500013039FEFFF27621B730B840B30F48095EF
:1024600070956195790B890B992790930C03A6E0E1
:102470006A9F00920003512DEE277A9F500DE11DB7
:102480008A9FE00D50930103E0930203AFE06A9F3F
:1024900000920403512DEE277A9F500DE11D8A9F73
:1024A000E00D50930503E0930603AAE06A9F0092B3
:1024B0000803512DEE277A9F500DE11D8A9FE00DF4
:1024C00050930903E0930A031F910F91FF90EF903F
:1024D00008958091010580FF1EC089988FEF809339
:1024E000520480910105869580FF18C08F988FEF68
:1024F00080935304809101058695869580FF11C0D5
:1025000080910B018095827080930901439A8FEF2F
:10251000809354040895899A81E0E1CF8F9A81E0F5
:10252000E7CF80910B01827080930901439881E08D
:10253000EFCF20912402309125022F5031098217CC
:1025400093070CF49C013093D50D2093D40D0C947B
:1025500076109F92AF92BF92CF92DF92EF92FF924E
:102560000F931F93CF93DF9300D01F921F92CDB78D
:10257000DEB7EDE9F0E10027BB27462F572FA82F44
:10258000AA2341F4A52F542FB85FAA2319F4A52F2D
:102590005527B85FA03138F45295A295452F4F705A
:1025A000507FA42BBC5FA03428F4550FAA1F550FF1
:1025B000AA1FBE5FA03818F4550FAA1FB395550F78
:1025C000AA1FEA0FF01F449151E0AA27B85081F1E9
:1025D000C8F0B0FF02C0440F551FB1FF04C0440F44
:1025E000551F440F551FB2FF06C052954295142F38
:1025F0001F70407F512BB3FF1BC0A52F542F4427C2
:102600000C941813B195B0FF02C055954795B1FFD2
:1026100004C05595479555954795B2FF05C052950D
:10262000407F4295452B5F70B3FF02C0452F552771
:10263000DD24CC24BB24B2E0649FD018C108B00ACA
:10264000B00B749FC018B108B00B849FB018B109CB
:10265000659FC018B108B00B759FB018B109859F70
:10266000B0196A9FB018B1097A9FB0194D9DA12C7D
:1026700099243327992722275D9DA00C911C301F98
:10268000901F201FAD9D900C311D901F201F4C9D51
:10269000A00C911C301F901F201F5C9D900C311DC1
:1026A000901F201FAC9D300D911D201F4B9D900C45
:1026B000311D901F201F5B9D300D911D201FAB9D74
:1026C000900D211D4B9F300D911D201F5B9F900D84
:1026D000211DAB9F200DB1E0BB24CC24DD24639FE2
:1026E000D018C108B00AB00B739FC018B108B00B66
:1026F000839FB018B109699FC018B108B00B799FCA
:10270000B018B109899FB019629FB018B109729FC2
:10271000B019D61AC70AB80A20F0B1E03B0F901FD3
:10272000201F1124792F632F90E0822F0F900F909C
:102730000F900F900F90DF91CF911F910F91FF900D
:10274000EF90DF90CF90BF90AF909F900895CF9281
:10275000DF92EF92FF928091A906882309F457C077
:10276000C090A506D090A606E090A706F090A80617
:1027700020E030E0A901C701B6010E94DC8B88236C
:1027800009F445C020E030E040E05FE3C701B60156
:102790000E94428C9B01AC010E94428C2BED3FE0D9
:1027A00049E450E40E94428C9B01AC0160E070E07F
:1027B00080E89FE30E9441916B017C01C0929506E5
:1027C000D0929606E0929706F092980660912602C3
:1027D00070912702072E000C880B990B0E94E38B47
:1027E0002AE037ED43E25CE30E94428CA7019601A8
:1027F0000E94428C60934D0270934E0280934F0270
:1028000090935002FF90EF90DF90CF900895C12CED
:10281000D12C80E8E82E8FE3F82ED0CF8091020EE5
:102820009091030E891B8F7019F490E080E0089559
:102830009091FF0D992351F0833030F48FEF890F81
:1028400019F08093FF0DF1CF1092FF0D8091030ED0
:1028500022E6829FC00111248D5A984FFC012081ED
:1028600020FDE3CF2091030E2F5F2F702093000EE9
:102870003091030E2091010E321304C02091000EFE
:102880002093010E089590916F0081E091FD02C0A8
:1028900080E0089590916F009D7F90936F00089560
:1028A000EFE6F0E08081826080830895CF93C82FA7
:1028B0000E94431494E0C99F90011124F901EB5543
:1028C000FB4F2D51324FD9014D915D916D917C910E
:1028D000408351836283738391E09093A40488239F
:1028E00019F0CF910C945014CF910895CF92DF92AC
:1028F000EF92FF92CF93DF93C82F0E94431494E08E
:10290000C99FE0011124FE01ED51F24FC080D1803A
:10291000E280F38081110E945014C25CD84FC7013D
:10292000B6010E94E38B288139814A815B810E9434
:10293000428CDF91CF91FF90EF90DF90CF90089580
:10294000CF92DF92EF92FF92CF93DF93C82F0E9436
:10295000431494E0C99FE0011124FE01EB55FB4FA5
:10296000C080D180E280F38081110E945014C25C4B
:10297000D84FC701B6010E94E38B288139814A8173
:102980005B810E94428CDF91CF91FF90EF90DF90AE
:10299000CF900895CF93DF9324E0829FC00111244C
:1029A000EC01CD50D24FFC01E756F94F8652994FBA
:1029B000DC012D913D914D915C916081718182810D
:1029C00093810E944790688379838A839B83DF91F8
:1029D000CF910895CF92DF92EF92FF921F93CF9302
:1029E000DF9320912802222309F48DC0EC0110917D
:1029F000F70610FF2CC0C0902902D0902A02E09068
:102A00002B02F0902C02288139814A815B81C70119
:102A1000B6010E94A792181624F4C882D982EA82CD
:102A2000FB82C0903502D0903602E0903702F090E1
:102A30003802288139814A815B81C701B6010E9431
:102A4000DC8B87FF04C0C882D982EA82FB8211FF37
:102A50002CC0C0902D02D0902E02E0902F02F0905A
:102A600030022C813D814E815F81C701B6010E94F9
:102A7000A792181624F4CC82DD82EE82FF82C090E9
:102A80003902D0903A02E0903B02F0903C022C8157
:102A90003D814E815F81C701B6010E94DC8B87FFBB
:102AA00004C0CC82DD82EE82FF8212FF2CC0C09077
:102AB0003102D0903202E0903302F0903402288547
:102AC00039854A855B85C701B6010E94A792181611
:102AD00024F4C886D986EA86FB86C0903D02D09051
:102AE0003E02E0903F02F0904002288539854A85F9
:102AF0005B85C701B6010E94DC8B87FF04C0C886D6
:102B0000D986EA86FB86DF91CF911F91FF90EF90E7
:102B1000DF90CF90089580914E0490914F04A09142
:102B20005004B09151048093490290934A02A093BB
:102B30004B02B0934C0280914C0490914D049093C1
:102B400048028093470208958091490290914A0279
:102B5000A0914B02B0914C0280934E0490934F048D
:102B6000A0935004B0935104809147029091480281
:102B700090934D0480934C0484E690E09093480237
:102B80008093470208958F929F92AF92BF92CF9207
:102B9000DF92EF92FF921F93CF93DF93CDB7DEB713
:102BA00060970FB6F894DEBF0FBECDBF182F81E03F
:102BB0000E9476146B017C0180E00E9476144B0128
:102BC0005C018092400490924104A0924204B09231
:102BD0004304C0924404D0924504E0924604F0922B
:102BE000470482E00E94761460934804709349047D
:102BF00080934A0490934B0489829A82AB82BC8270
:102C0000CD82DE82EF82F88669877A878B879C8700
:102C100083E00E9476146D877E878F87988B1E3F96
:102C2000D9F480E1FE013196A3E5B2E001900D9266
:102C30008A95E1F760960FB6F894DEBF0FBECDBF60
:102C4000DF91CF911F91FF90EF90DF90CF90BF90D9
:102C5000AF909F908F90089524E0129FC00111249F
:102C6000FC01ED5AFD4FA1E0B0E0AC0FBD1F8A0F93
:102C70009B1FDC014D915D916D917C91408351834F
:102C800062837383D7CFCF92DF92EF92FF928091CE
:102C90003F0465997BC0816080933F04909103015C
:102CA00080913F0491FD74C0826080933F048091C5
:102CB0003F044B996FC0846080933F0480913F0430
:102CC00090913E04981709F467C092E090933D04F8
:102CD00080933E048091F406811105C08091E7063F
:102CE000882309F466C0C0909504C0FE10C080918E
:102CF000010580FF0CC080913C0480FF08C08091DA
:102D0000E60681608093E60680E00E945614D12C8E
:102D1000F12CE12CD701C601B695A795979587951B
:102D200080FF11C080910105869580FF0CC08091C5
:102D30003C0481FF08C08091E60682608093E6062D
:102D400081E00E94561482E0F694E794D794C794E9
:102D50008A95D1F7C0FE2DC0809101058695869594
:102D600080FF27C08091E706882319F180913C04F9
:102D700082FF1FC08091E60684608093E60682E0B1
:102D8000FF90EF90DF90CF900C9456148E7F84CFFD
:102D90008D7F8BCF8B7F90CF80913D04882309F46A
:102DA00099CF815080933D04811194CF90933C043E
:102DB00091CFFF90EF90DF90CF9008950F931F93E6
:102DC0008091D506813019F50E946A1000912B047C
:102DD00010912C0420912D0430912E04601B710B56
:102DE000820B930B28EE33E040E050E00E94CF8F3F
:102DF00060912704709128048091290490912A04FD
:102E0000620F731F841F951F1F910F91089560918A
:102E1000D1067091D2068091D3069091D406D6CF78
:102E20001092D50610922B0410922C0410922D04AF
:102E300010922E041092D1061092D2061092D30650
:102E40001092D4061092270410922804109229049C
:102E500010922A0408958091D5068130F1F08230D5
:102E6000C9F40E94DE1660932704709328048093AF
:102E7000290490932A0481E08093D5060E946A1069
:102E800060932B0470932C0480932D0490932E0454
:102E900081E008950E941017EECF80E008958091A0
:102EA000D5068150823070F41092D5060E946A10C7
:102EB0006093D1067093D2068093D3069093D40684
:102EC00081E0089580E008954F925F926F927F9223
:102ED0008F929F92AF92BF92CF92DF92EF92FF922A
:102EE000CF93DF9300D000D01F921F92CDB7DEB7F3
:102EF0009E838D83DB01CD90DD90ED90FC908091E1
:102F0000EC069091ED06A091EE06B091EF06898354
:102F10009A83AB83BC839C01AD01C701B6010E94BB
:102F200046902B013C01AD81BE818D909D90AD906E
:102F3000BC908091E8069091E906A091EA06B091D4
:102F4000EB068D839E83AF83B88722ED30E040EAA5
:102F500050ECC301B2010E94A79287FDD2C023E0CA
:102F600030E046E953E4C301B2010E94DC8B18163D
:102F70000CF4C7C02D813E814F815885C501B40135
:102F80000E9446902B013C0127E137EB41ED58EBC5
:102F90000E94A79287FDB5C023E030E046E953E4E4
:102FA000C301B2010E94DC8B18160CF4AAC020E009
:102FB00030E0A9016D817E818F8198850E944790C4
:102FC0002B013C0120E030E040E251E40E94DC8B28
:102FD00087FF06C0412C512C30E2632E31E4732E62
:102FE00027E137EB41ED58E3C301B2010E9446905F
:102FF0009B01AC01C501B4010E94A79287FD81C06D
:1030000020E030E046E953E46D817E818F81988530
:103010000E9447902B013C0120E030E041E953E45D
:103020000E94A792181634F4412C512C21E9622EEB
:1030300023E4722E27E137EB41ED58E3C301B201DF
:103040000E9447909B01AC01C501B4010E94DC8B3A
:1030500018160CF456C020E030E040EA50E46981D4
:103060007A818B819C810E9446904B015C0120E01B
:1030700030E040E251E40E94DC8B87FF06C0812CE7
:10308000912C90E2A92E91E4B92E27E137EB41ED86
:1030900058E3C501B4010E9446909B01AC01C701F1
:1030A000B6010E94A79287FD2CC020E030E046E9DF
:1030B00053E469817A818B819C810E9447904B0106
:1030C0005C0120E030E041E953E40E94A792181629
:1030D00034F4812C912C81E9A82E83E4B82E27E1C9
:1030E00037EB41ED58E3C501B4010E9447909B01C5
:1030F000AC0191E09983C701B6010E94DC8B1816E0
:103100000CF41982898128960FB6F894DEBF0FBEA1
:10311000CDBFDF91CF91FF90EF90DF90CF90BF9028
:10312000AF909F908F907F906F905F904F90089599
:10313000282F90910B07833021F495FD0FC094FD4B
:103140000FC0892F90E0B0E0A0E004C0B695A7952D
:10315000979587952A95D2F78170089581E0089513
:1031600080E008952FEB280F2A3108F042C0E22FAB
:10317000F0E08091D6069091D706A091D806B09144
:10318000D90604C0B695A795979587952A95D2F745
:1031900080FD02C081700895E557FC4FE081EE2369
:1031A00029F18091760D9091770DE80FF92FF11D9F
:1031B000808190ED980F9A3030F08E3251F48181F9
:1031C00080538A3098F4F093F906E093F80681E092
:1031D00008958D3211F08B3249F4818190ED980F72
:1031E0009A3088F38E3211F48281EACFF0E0E0E089
:1031F000EACF80E008950E94B218882341F081E070
:103200002091F8063091F906232B09F480E0089507
:10321000CF93DF93EC01688170E085E00E943B0F63
:10322000698170E084E00E943B0F6A8170E086E073
:103230000E943B0F88819981482F490F5527551FC0
:103240008A81840F952F911D21E0833091050CF424
:1032500020E02093B10403976CF05EE0CC32D507F8
:1032600049F088819981AA8180932C0E90932D0E2C
:10327000A0932E0EDF91CF9108954F925F926F929F
:103280007F928F929F92AF92BF92CF92DF92EF92F6
:10329000FF92CF93DF9300D000D000D01F921F92F7
:1032A000CDB7DEB77C016B01DA018D919D910D9058
:1032B000BC91A02D8C839D83AE83BF83BC01CD01C7
:1032C0000E94B391688779878A879B87F70140803E
:1032D000518062807380C301B2010E94B3914B019F
:1032E0005C01D601CD90DD90ED90FC90A701960198
:1032F000C301B2010E94A79218160CF446C0A701A0
:1033000096016C817D818E819F810E94DC8B87FD7F
:103310003FC0C701B6010E94B3919B01AC012819BF
:1033200039094A095B09AFEFB0E00E941090288587
:1033300039854A855B85281939094A095B090E9444
:10334000F18F8091CC06821759F02093CC068FEF35
:1033500089831A8220952B83CE0101960E94081939
:103360002B960FB6F894DEBF0FBECDBFDF91CF9185
:10337000FF90EF90DF90CF90BF90AF909F908F9095
:103380007F906F905F904F900895C501B401C5CFB5
:10339000688579858A859B85C0CF4F925F926F92B1
:1033A0007F928F929F92AF92BF92CF92DF92EF92D5
:1033B000FF92CF93DF9300D000D000D01F921F92D6
:1033C000CDB7DEB77C016B01DA018D919D910D9037
:1033D000BC91A02D8C839D83AE83BF83BC01CD01A6
:1033E0000E94B391688779878A879B87F70140801D
:1033F000518062807380C301B2010E94B3914B017E
:103400005C01D601CD90DD90ED90FC90A701960176
:10341000C301B2010E94A79218160CF445C0A7017F
:1034200096016C817D818E819F810E94DC8B87FD5E
:103430003EC0C701B6010E94B3919B01AC0128199F
:1034400039094A095B09AFEFB0E00E941090288566
:1034500039854A855B85281939094A095B090E9423
:10346000F18F8091CC06821751F02093CC062983EE
:103470001A828FEF8B83CE0101960E9408192B963A
:103480000FB6F894DEBF0FBECDBFDF91CF91FF9096
:10349000EF90DF90CF90BF90AF909F908F907F90F4
:1034A0006F905F904F900895C501B401C6CF6885B5
:1034B00079858A859B85C1CF129A08955F9A8091FC
:1034C000F6068E7F8093F6068A9A8091F6068D7FA7
:1034D0008093F606809108018095817080930601A3
:1034E000479A8091F6068B7F8093F6060C945C1ABF
:1034F0009091C00095FFFCCF8093C6000895CF93B4
:10350000DF93EC01FE0184912196882319F00E943B
:10351000781AF8CFDF91CF910895CF93C82FCB01C0
:103520000E947F1A8DE898E00E947F1A87E098E059
:10353000CC2311F08CE098E00E947F1A8AE0CF91B2
:103540000C94781ACF9388E298E00E947F1A8CB18D
:10355000C1E085FB882780F962E278E08C270E9431
:103560008D1A80910301869581706CE178E08C273B
:103570000E948D1A89B183FB882780F966E178E083
:103580008C27CF910C948D1A0F931F93CF93DF93B9
:103590008B010E947F1AE8018991882319F00E940B
:1035A000781AFACFDF91CF911F910F91089583EB95
:1035B00093E00C947F1AC82F0E94FA100E94D71A29
:1035C00082E49EE00E947F1A89EE93E030E6019744
:1035D00029F0232F2A950000E9F7F9CFF89489EE16
:1035E00093E038EE019729F0232F2A950000E9F7A0
:1035F000F9CF0E94FA10CC2321F00E945E1AA89500
:10360000FECF0E945C1AFBCF8091E606882319F05A
:103610001092E606089580E00E94DB1A8DEA93E09E
:103620000C947F1A0E940E1B6091760D7091770D9D
:1036300082E29EE00E94C41A8FE19EE00C947F1A01
:103640000F931F93CF93811113C0C42F8B010E943E
:103650000E1B86E396E00E947F1AC8010E947F1A23
:10366000CC2331F08AE0CF911F910F910C94781AFE
:10367000CF911F910F9108958091A5039091A6037A
:103680002FEF3FEF981751F0E92FF0E0EB55FC4F8B
:10369000228130E09F5F9F779093A603C901089530
:1036A0008F929F92AF92BF92CF92DF92EF92FF9252
:1036B0000F931F93CF93DF93B0E4A0E06A2F70E0E5
:1036C000AB014B0F511D55954795411119C0EFEBBB
:1036D000F9E165917491072E000C880B990B0E94FB
:1036E000E38BDF91CF911F910F91FF90EF90DF90CF
:1036F000CF90BF90AF909F908F900895B42FE0CF60
:103700004A1711F0B41303C0EBEBFAE1E2CF9A01D0
:1037100021503109220F331F220F331FF901E354C7
:10372000F64EE590F490F901EF53F64EC591D49121
:103730008E159F051CF3A42FC817D9070CF4BECF14
:10374000F901E154F64E05911491F901ED53F64E4D
:10375000C590D490BC016E197F09072E000C880B10
:10376000990B0E94E38B4B015C01B601601B710B4E
:10377000072E000C880B990B0E94E38B9B01AC0178
:10378000C501B4010E94428C4B015C01BE016E195F
:103790007F09072E000C880B990B0E94E38B9B017D
:1037A000AC01C501B4010E9441916B017C01B801DB
:1037B000110F880B990B0E94E38B9B01AC01C70191
:1037C000B6010E9447908DCFCF93DF93CCECDDE024
:1037D0008A819B810E94501B6C837D838E839F8393
:1037E000C5EBD6E08A819B810E942B116C837D837F
:1037F0008E839F83A8951092F904DF91CF9108954D
:10380000CF92DF92EF92FF920F931F93CF93DF93AC
:10381000CDB7DEB7A0970FB6F894DEBF0FBECDBF11
:10382000611571058105910579F100E0C42ED12C57
:10383000F12CE12CA70196010E94CF8F11E0100F0F
:10384000E1E0F0E0EC0FFD1FE00FF11D07FDFA9540
:103850006083B901CA01012F6115710581059105C8
:1038600049F7115010F1E1E0F0E0EC0FFD1FE10F1E
:10387000F11D17FDFA95908187E39A3008F480E3F3
:10388000890F0E94781AEDCF80E3A0960FB6F894C6
:10389000DEBF0FBECDBFDF91CF911F910F91FF9083
:1038A000EF90DF90CF900C94781AA0960FB6F89412
:1038B000DEBF0FBECDBFDF91CF911F910F91FF9063
:1038C000EF90DF90CF900895CF93DF93EB010E94AC
:1038D0007F1ABE0190E080E04AE0DF91CF910C9426
:1038E000001CCF92DF92EF92FF926B017C01F7FEFA
:1038F0000BC08DE20E94781AF094E094D094C094AA
:10390000C11CD11CE11CF11C4AE0C701B601FF90AB
:10391000EF90DF90CF900C94001C0F931F93CF93E8
:10392000C82F8B0180910A078130A9F40E94D71A11
:10393000C8010E947F1A82E798E00E947F1AC7FDA3
:1039400019C06C2FCC0F770B880B990B0E94711C40
:103950008AE00E94781A0E94FA108091B2048111C4
:103960000EC081E08093B20480E880930A0780E073
:103970000E94DB1A8EE698E00E947F1AE9CFCF9171
:103980001F910F9108953F924F925F926F927F9295
:103990008F929F92AF92BF92CF92DF92EF92FF925F
:1039A0000F931F93CF93DF936C015B01322E48017D
:1039B000C1E0D0E0211102C0D0E0C0E0FA014080B7
:1039C000518062807380CC0FDD1FCC0FDD1F8E0114
:1039D00000511B4FA3019201F80160817181828126
:1039E00093810E94DC8B882391F0F8014082518200
:1039F0006282738211E020E030E0A901C301B201CC
:103A00000E94A79218160CF010E0F6011483F6013C
:103A100084818230C9F0833009F463C0813009F0B9
:103A20003FC0FE01E051FB4F208131814281538133
:103A3000F50160817181828193810E94DC8B87FD19
:103A40002FC082E0F6018483C051DB4FB70190E0C4
:103A500080E00E94E18B9B01AC01688179818A81C1
:103A60009B810E9446909B01AC01F50160817181B0
:103A7000828193810E94A79287FD24C00E946A10D0
:103A80002B013C019401A8EEB3E00E941B90460E6E
:103A9000571E681E791EF60140825182628273822F
:103AA000DF91CF911F910F91FF90EF90DF90CF901A
:103AB000BF90AF909F908F907F906F905F904F904E
:103AC0003F9008950E946A10F601008111812281C1
:103AD0003381601B710B820B930B97FDE1CF83E069
:103AE00084834EEA58E06EEB78E0832DDF91CF912E
:103AF0001F910F91FF90EF90DF90CF90BF90AF900C
:103B00009F908F907F906F905F904F903F900C941C
:103B10008D1C2F923F924F925F926F927F928F9265
:103B20009F92AF92BF92CF92DF92EF92FF920F934C
:103B30001F93CF93DF93CDB7DEB763970FB6F8949B
:103B4000DEBF0FBECDBF8091F904811119C063960D
:103B50000FB6F894DEBF0FBECDBFDF91CF911F919E
:103B60000F91FF90EF90DF90CF90BF90AF909F901C
:103B70008F907F906F905F904F903F902F9008951F
:103B80000E94E41B0E946A104B015C0160912402B8
:103B900070912502072E000C880B990B0E94E38B75
:103BA0002B013C0120E030E0A9016091D00D709123
:103BB000D10D8091D20D9091D30D0E944790A30119
:103BC00092010E94A79218160CF43DC36091D40D87
:103BD0007091D50D072E000C880B990B0E94E38B7A
:103BE00069837A838B839C8334E0E32EF12C08E293
:103BF00010E020E0AE014F5F5F4F60ED7DE085EEAD
:103C000094E00E94C31CC090D00DD090D10DE090E4
:103C1000D20DF090D30D6091220270912302072EF5
:103C2000000C880B990B0E94E38B9B01AC01C70130
:103C3000B6010E94A79218160CF014C1A7019601B4
:103C4000C301B2010E94A79218160CF00BC160913B
:103C5000D40D7091D50D6115710509F458C3072E67
:103C6000000C880B990B0E94E38BA70196010E9420
:103C700046901B012C0120E030E040E251EC0E9414
:103C8000DC8B87FD44C320E030E040E251E4C20118
:103C9000B1010E94A79218160CF452C38091DB0464
:103CA00081115BC32091D3043091D4044091D50499
:103CB0005091D6042D833E834F8358878091D7043B
:103CC0009091D804A091D904B091DA0489879A8799
:103CD000AB87BC87A70196016091C7047091C804A7
:103CE0008091C9049091CA040E9446902091DF0DF2
:103CF0003091E00D4091E10D5091E20D0E94428C17
:103D00002D813E814F8158850E94469020ED3CECEC
:103D10004CE45DE30E94428C2D813E814F815885A9
:103D20000E9447906D837E838F8398876093D3042E
:103D30007093D4048093D5049093D6042091DB0D26
:103D40003091DC0D4091DD0D5091DE0D2D873E87C9
:103D50004F87588B29853A854B855C85C201B10117
:103D60000E944790162F072F782E692E20E030E012
:103D7000A9010E94DC8B87FD00C32D853E854F8500
:103D8000588960E070E08FE793E40E944191698771
:103D9000798B8A8B9B8B212F302F472D562D0E949C
:103DA000DC8B87FF04C0198509897A886B88812F8D
:103DB000902FA72DB62D8093D7049093D804A0936D
:103DC000D904B093DA042091D70D3091D80D4091E9
:103DD000D90D5091DA0DC201B1010E94428C1B0134
:103DE0002C012092CB043092CC044092CD0450920E
:103DF000CE04212F302F472D562D6D857E858F8542
:103E000098890E94428C9B01AC012093CF0430938F
:103E1000D0044093D1045093D204C201B1010E9456
:103E200047902D813E814F8158850E94479020E028
:103E300030E0A9010E9447902B013C0120E030E0D6
:103E4000A9010E94DC8B87FD65C220E030E04FE7CE
:103E500053E4C301B2010E94A79218160CF064C289
:103E60006FE759C260E06093D60D8091C80D9091C4
:103E7000C90DA091CA0DB091CB0D0097A105B10558
:103E800051F1A5019401281B390B4A0B5B0BDA0198
:103E9000C901B7FD20C020E030E0A901C701B6018B
:103EA0000E9447906B017C016091C60D7091C70D17
:103EB00090E080E00E94E18B9B01AC01C701B6015C
:103EC0000E94DC8B87FFF5C140E958E06FE978E09C
:103ED00080E00E948D1C8091E1049091E204A09109
:103EE000E304B091E404A5019401281B390B4A0BAB
:103EF0005B0BDA01C901B7FF8DC120E030E046E17C
:103F000053E46091B9067091BA068091BB06909116
:103F1000BC060E94A79218160CF48DC18091EC0487
:103F20009091ED04A091EE04B091EF040097A105EB
:103F3000B10529F1881A990AAA0ABB0AB7FC1FC061
:103F4000C090B906D090BA06E090BB06F090BC06CF
:103F50006091EA047091EB0490E080E00E94E18BB4
:103F60009B01AC01C701B6010E94DC8B87FF73C1C6
:103F700040E958E06FE978E08FEF0E948D1C0091D6
:103F8000BD061091BE06B801110F880B990B0E9457
:103F9000E38B69837A838B839C8392E0E92EF12CF7
:103FA00004E110E02FEFAE014F5F5F4F69EB76E069
:103FB0008CED94E00E94C31C4090B9065090BA0664
:103FC0006090BB067090BC0620E030E040EA50E410
:103FD000C301B2010E94A79287FD18C120E030E022
:103FE00046E153E4C301B2010E94DC8B18160CF4C5
:103FF0000DC16091BD067091BE066115710509F491
:1040000002C1072E000C880B990B0E94E38BA301C1
:1040100092010E9446904B015C0120E030E040E2BA
:1040200051EC0E94DC8B87FDEEC020E030E040E2E6
:1040300051E4C501B4010E94A79218160CF47BC18B
:104040008091C4069091C506A091C606B091C7069E
:104050008D839E83AF83B88780911802811175C1CB
:104060002091C3043091C4044091C5045091C6040A
:10407000C090BF04D090C004E090C104F090C2048E
:10408000C501B4010E944790162F072F382E292E04
:1040900020E030E0A9010E94DC8B87FD69C12D8101
:1040A0003E814F81588560E070E08FE793E40E9485
:1040B00041916D877987898B9A8B212F302F432DE2
:1040C000522D0E94DC8B87FF04C01D85098539882D
:1040D0002A88812F902FA32DB22D8093C304909313
:1040E000C404A093C504B093C6042091C0063091C7
:1040F000C1064091C2065091C306C501B4010E9499
:10410000428C4B015C018092B7049092B804A0925B
:10411000B904B092BA04212F302F432D522D6D8156
:104120007E818F8198850E94428C6D837E838F83F0
:1041300098876093BB047093BC048093BD049093F4
:10414000BE04A30192016091B3047091B404809104
:10415000B5049091B6040E9446902091C806309113
:10416000C9064091CA065091CB060E94428CA70115
:1041700096010E94469020ED3CEC4CE45DE30E94E9
:10418000428CA70196010E9447906B017C01C0926E
:10419000BF04D092C004E092C104F092C2044092E5
:1041A000B3045092B4046092B5047092B6042D81A9
:1041B0003E814F815885C501B4010E944790A701F7
:1041C00096010E94479020E030E0A9010E944790AC
:1041D0006B017C0120E030E0A9010E94DC8B87FDAF
:1041E00015C020E030E04FE753E4C701B6010E945C
:1041F000A79218160CF4A2C0C701B6010E94B39191
:104200007595679504C081E08093180260E0609323
:10421000BF069DCC0E94BF11D501C4018C53964F9F
:10422000AF4FBF4F8093E1049093E204A093E30467
:10423000B093E40462CE4EEA58E06EEB78E08FEF84
:104240000E948D1C6BCE4EEA58E06EEB78E080E069
:104250000E948D1CBBCC0091BD061091BE060115BD
:104260001105F1F0C701B6010E94B3916E5F7F4F57
:10427000C8010497681779079CF47093EB04609366
:10428000EA040E946A10605A75418F4F9F4F6093F5
:10429000EC047093ED048093EE049093EF046FCEE2
:1042A0001092EC041092ED041092EE041092EF04C0
:1042B0006ACE0091D40D1091D50D01151105F1F0C4
:1042C000C701B6010E94B3916E5F7F4F0450110980
:1042D000601771079CF47093C70D6093C60D0E9420
:1042E0006A10605E714B8F4F9F4F6093C80D709343
:1042F000C90D8093CA0D9093CB0DEDCD1092C80DD2
:104300001092C90D1092CA0D1092CB0DE4CD81E030
:104310008093DB0460E0C092C704D092C804E092AE
:10432000C904F092CA049FCDC301B2010E94B391A7
:1043300075956795F0CF81E0809318026FE767CF9E
:1043400081E08093DB046FE7E6CF10921802C12C66
:10435000D12C7601A701960193CE1092DB04198629
:104360001A861B861C861D821E821F821886B2CC6E
:1043700010E000E0312C212CACCE10E000E0712CDC
:10438000612C15CDCF92DF92EF92FF926B017C01F1
:1043900083E3C816D104E104F10470F082E3C81A83
:1043A000D108E108F10862E370E080E090E00E944B
:1043B00037100E94891DECCFC701B6010E9437104B
:1043C000FF90EF90DF90CF900C94891D8091F406C0
:1043D000811104C08091E706882379F062E070E0E3
:1043E00080E090E00E94C22180913D04882329F062
:1043F00061E070E080E090E0F5CF0895CF92DF9229
:10440000EF92FF92CF93DF93EC01C880D980EA80CE
:10441000FB8084E698E00E947F1AC701B6010E94E3
:10442000711CCC80DD80EE80FF808AE69EE00E94D9
:104430007F1AC701B6010E94711CC884D984EA841E
:10444000FB8486E69EE00E947F1AC701B6010E94A7
:10445000711C8AE0DF91CF91FF90EF90DF90CF90B9
:104460000C94781ACF93DF93EB010E947F1ABE0160
:10447000DD0F880B990BDF91CF910C94711C8F92FB
:104480009F92AF92BF92CF92DF92EF92FF92CF9323
:104490006B017C01B42E20E030E0A9010E94DC8B8E
:1044A00087FF07C08DE20E94781AF7FAF094F7F8B8
:1044B000F094C0E060E070E080E09FE3CB1541F055
:1044C0002DEC3CEC4CEC5DE30E94428CCF5FF6CFD0
:1044D0009B01AC01C701B6010E9447906B017C01B2
:1044E0000E94BA914B015C014AE00E94001CCC235F
:1044F00091F1C501B4010E94E18B9B01AC01C701A0
:10450000B6010E9446906B017C018EE20E94781AEF
:10451000C15008F120E030E040E251E4C701B601AB
:104520000E94428C4B015C010E94B3916B01770F9A
:10453000EE08FF08C701B6010E94711CC701B60151
:104540000E94E38B9B01AC01C501B4010E9446901F
:104550006B017C01DDCFCF91FF90EF90DF90CF908A
:10456000BF90AF909F908F900895CF92DF92EF927F
:10457000FF926A017B010E947F1A42E0C701B601E7
:10458000FF90EF90DF90CF900C943F224F925F927C
:104590006F927F928F929F92AF92BF92CF92DF9253
:1045A000EF92FF92CF93DF93CDB7DEB72C970FB684
:1045B000F894DEBF0FBECDBFC0905F02D090600206
:1045C000E0906102F09062022091F70D3091F80DB9
:1045D0004091F90D5091FA0D609157027091580277
:1045E0008091590290915A020E9447902B013C0100
:1045F0002091FB0D3091FC0D4091FD0D5091FE0D71
:1046000060915B0270915C0280915D0290915E020C
:104610000E9447904B015C012091F30D3091F40D05
:104620004091F50D5091F60D609153027091540236
:1046300080915502909156020E944790AB01BC01B7
:104640008BE698E00E94B522B301A2018AE69EE0C3
:104650000E94B522B501A40186E69EE00E94B52223
:10466000B701A60182E69EE00E94B5220E94431493
:104670009CE0E3EEFDE0DE01119601900D929A952B
:10468000E1F781110E945014CE0101960E94FE2193
:104690002C960FB6F894DEBF0FBECDBFDF91CF9141
:1046A000FF90EF90DF90CF90BF90AF909F908F9052
:1046B0007F906F905F904F9008950C94C62288234E
:1046C000A9F10E940E1B40918C0D50918D0D6091AF
:1046D0008E0D70918F0D8BE39EE00E94B52240916C
:1046E000900D5091910D6091920D7091930D88E312
:1046F0009EE00E94B5224091940D5091950D6091DD
:10470000960D7091970D89E19BE00E94B522409132
:10471000980D5091990D60919A0D70919B0D85E3C4
:104720009EE00E94B5228AE00C94781A80E20E94F2
:10473000781AC9CFEF92FF920F931F93CF937C010A
:104740008B01C2E44F3F09F0C4E580E20E94781A71
:104750008C2F0E94781A8AE30E94781AF7016081F0
:1047600071818281938142E00E943F22F801408161
:104770005181628173818CE099E00E94B52262E0F0
:1047800070E080E090E0CF911F910F91FF90EF904B
:104790000C9437101F93CF93DF9300D000D01F925B
:1047A0001F92CDB7DEB7182F6091D40D7091D50D43
:1047B000072E000C880B990B0E94E38B6D837E8380
:1047C0008F83988720E030E0A9016091D00D70912F
:1047D000D10D8091D20D9091D30D0E9447906983A5
:1047E0007A838B839C834BEFBE016B5F7F4FCE013F
:1047F00001960E949A236091BD067091BE06072E15
:10480000000C880B990B0E94E38B6D837E838F8352
:1048100098878091B9069091BA06A091BB06B09195
:10482000BC0689839A83AB83BC834FEFBE016B5F69
:104830007F4FCE0101960E949A236091BF061F3FD1
:1048400039F087E11802F0011124E453F24F628538
:1048500070E084E199E00E9432226091BF0670E02E
:104860008FE099E00E94322228960FB6F894DEBFBE
:104870000FBECDBFDF91CF911F910895CF93DF93EE
:10488000C82FD1E0D827811102C00E940E1B80EFF3
:1048900097E00E947F1A8AEE97E00E947F1A8AE0D2
:1048A0000E94781A8AE00E94781AC11114C00E94EE
:1048B0000E1B86E396E00E947F1A87ED97E00E9428
:1048C0007F1A8091A906882309F426C28AE00E94F3
:1048D000781A0E940E1B4091A5065091A606609181
:1048E000A7067091A80683EC97E00E94B5228AE0A3
:1048F0000E94781A8091A906811108C0C11102C0D6
:104900000E940E1B88EB97E00E947F1A41E068EA44
:1049100077E08C2F0E94201B8D2F0E945F2341E0A7
:104920006BE877E08C2F0E94201BC11102C00E940F
:104930000E1B40919C0D50919D0D60919E0D7091AC
:104940009F0D82E897E00E94B5224091A00D509102
:10495000A10D6091A20D7091A30D88E39EE00E94CD
:10496000B5224091A40D5091A50D6091A60D7091B6
:10497000A70D89E19BE00E94B5224091A80D5091BE
:10498000A90D6091AA0D7091AB0D85E39EE00E9488
:10499000B5228AE00E94781A41E061E677E08C2F28
:1049A0000E94201BC11102C00E940E1B6091780D55
:1049B0007091790D80917A0D90917B0D0E94E18B21
:1049C000AB01BC0188E597E00E94B52260917C0DA7
:1049D00070917D0D80917E0D90917F0D0E94E18BF5
:1049E000AB01BC0188E39EE00E94B5226091800D7E
:1049F0007091810D8091820D9091830D0E94E18BC9
:104A0000AB01BC0189E19BE00E94B5226091840D5D
:104A10007091850D8091860D9091870D0E94E18B9C
:104A2000AB01BC0185E39EE00E94B5228AE00E94B2
:104A3000781A41E06FE077E08C2F0E94201BC111B3
:104A400002C00E940E1B4091AC0D5091AD0D6091C3
:104A5000AE0D7091AF0D86E097E00E94B5224091B7
:104A6000B00D5091B10D6091B20D7091B30D8AE708
:104A70009BE00E94B5224091B40D5091B50D60911C
:104A8000B60D7091B70D87E79BE00E94B5228AE0D2
:104A90000E94781A41E062EB76E08C2F0E94201B86
:104AA000C11102C00E940E1B6091880D7091890D8A
:104AB00080918A0D90918B0D0E94E18BAB01BC011E
:104AC00089EA96E00E94B5224091B80D5091B90D47
:104AD0006091BA0D7091BB0D81E89DE00E94B522F6
:104AE0004091BC0D5091BD0D6091BE0D7091BF0DF8
:104AF00087E79BE00E94B522409110075091110773
:104B0000609112077091130786EA96E00E94B52221
:104B10008AE00E94781A41E069E976E08C2F0E94D1
:104B2000201BC11102C00E940E1B4091990650919A
:104B30009A0660919B0670919C0680E996E00E941F
:104B4000B52240919D0650919E0660919F067091FE
:104B5000A00688E39EE00E94B5224091A1065091F4
:104B6000A2066091A3067091A40689E19BE00E94D1
:104B7000B5228AE00E94781A41E062E876E08C2F44
:104B80000E94201BC11102C00E940E1B4091D70D34
:104B90005091D80D6091D90D7091DA0D89E796E0AA
:104BA0000E94B5222CEA35EC47E25EE36091DB0D12
:104BB0007091DC0D8091DD0D9091DE0D0E94419190
:104BC000AB01BC018DE696E00E94B5222CEA35ECE3
:104BD00047E25EE36091DF0D7091E00D8091E10DA1
:104BE0009091E20D0E94428CAB01BC0189EC97E0F0
:104BF0000E94B5228AE00E94781AC11102C00E9468
:104C00000E1B4091C0065091C1066091C206709182
:104C1000C30680E796E00E94B5222CEA35EC47E215
:104C20005EE36091C4067091C5068091C6069091BE
:104C3000C7060E944191AB01BC018DE696E00E943F
:104C4000B5222CEA35EC47E25EE36091C80670912C
:104C5000C9068091CA069091CB060E94428CAB0196
:104C6000BC0189EC97E00E94B5228AE00E94781A84
:104C700040E06EE576E08C2F0E94201BC1110AC037
:104C80008AEE97E00E947F1A89E396E00E947F1ADD
:104C90000E940E1B4091E8065091E9066091EA06D9
:104CA0007091EB0685E596E00E94B5224091EC06F6
:104CB0005091ED066091EE067091EF0688E39EE05C
:104CC0000E94B5224091F0065091F1066091F206E3
:104CD0007091F30689E19BE00E94B5228AE00E9470
:104CE000781A41E065E476E08C2F0E94201BC11108
:104CF00002C00E940E1B40914F07509150076091D7
:104D00005107709152078CE396E00E94B5228AE029
:104D1000DF91CF910C94781A8CEC97E00E947F1A67
:104D2000D8CD8DE00E94781A8AE00C94781A809190
:104D3000A5038093A60388EE93E00E947F1A6091FA
:104D4000C20D7091C30D8091C40D9091C50D6F5F20
:104D50007F4F8F4F9F4F0E94711C0E949126E091C0
:104D60008F06F0E0E85DF14F8081882339F082E121
:104D70009AE00E947F1A8AE00C94781A0895CF93E3
:104D8000DF93EC010E94D71ACE010E947F1A609136
:104D9000C20D7091C30D8091C40D9091C50D0E94FC
:104DA000711C0E9491260E943C1B0196E1F70E9413
:104DB00097261092C10D1092C00DDF91CF910895EA
:104DC0000F931F93CF938C01C62F8DEC93E00E941D
:104DD0007F1AC8010E947F1A8AE30E94781A6C2FFA
:104DE00070E090E080E00E94711CCF911F910F91C4
:104DF0000C949126CF93DF93EC018991882319F0CD
:104E00000E94781AFACFDF91CF910C949126AF923D
:104E1000BF92CF92DF92EF92FF920F931F93CF93A7
:104E2000DF93C8E7DDE004E217E088E8A82E8DE014
:104E3000B82EC12CD12C7601C394699179918991B6
:104E400099910E94E18B288939894A895B890E945E
:104E5000428C0E94BA91F80161937193819391936E
:104E60008F01C616D706E806F90610F46B017C011F
:104E7000AC16BD0611F76FEF7FEFCB01A7019601CE
:104E80000E94CF8F20933407309335074093360725
:104E90005093370723EF34E045E35FE36091100759
:104EA0007091110780911207909113070E94428C14
:104EB0006B017C016091840D7091850D8091860D50
:104EC0009091870D0E94E18B9B01AC01C701B60157
:104ED0000E94428C29E732E84AE550E40E94428C65
:104EE0000E94F592609338077093390780933A07D0
:104EF00090933B07DF91CF911F910F91FF90EF901F
:104F0000DF90CF90BF90AF900895FF920F931F93C3
:104F1000CF93DF931F92CDB7DEB7F82E0EE61EE0DB
:104F200041E050E0B801CE0101960E94718B898169
:104F30008F1108C081E00F90DF91CF911F910F91E9
:104F4000FF9008950F5F1F4F8EE00A38180741F752
:104F500080E0F1CF2F923F924F925F926F927F92BB
:104F60008F929F92AF92BF92CF92DF92EF92FF9279
:104F70000F931F93CF93DF93CDB7DEB76C970FB628
:104F8000F894DEBF0FBECDBF8C015B015A8349830D
:104F9000FC01EF5AFF4F20813181428153812987E3
:104FA0003A874B875C87CA01B9010E94E18B6B018C
:104FB0007C01D5012D913D914D915C910E94428CD7
:104FC0000E9425912B013C01E981FA8120813181E8
:104FD00042815381C701B6010E94428C0E942591F3
:104FE0004B015C01C301B2010E94BA91698B7A8BBB
:104FF0008B8B9C8B683771058105910540F428E700
:1050000030E040E050E0298B3A8B4B8B5C8BC50144
:10501000B4010E94BA916D877E878F87988B68371D
:1050200071058105910540F448E750E060E070E0CB
:105030004D875E876F87788BF801E35AFF4F40807A
:10504000518062807380C301B2010E94E38B698347
:105050007A838B839C8369897A898B899C890E9456
:10506000E18B6D8B7E8B8F8B988F20E030E0A901D8
:1050700069817A818B819C810E94DC8B882309F471
:10508000E1C1A7019601C701B6010E94428C4B0104
:105090005C012D893E894F89588DCA01B9010E9452
:1050A000428C9B01AC01C501B4010E9446904B01AA
:1050B0005C0129813A814B815C81CA01B9010E945E
:1050C00047909B01AC01C501B4010E9441910E942F
:1050D00025910E94BA916D837E838F83988766277E
:1050E0007727CB0164197509860997090E94E38B1C
:1050F0004B015C016D857E858F8598890E94E18BCF
:105100002B013C0120E030E0A901C501B4010E945F
:10511000DC8B882309F49AC1A3019201C301B20177
:105120000E94428C698F7A8F8B8F9C8FA70196018A
:10513000C701B6010E94428C9B01AC01698D7A8D3A
:105140008B8D9C8D0E9446906B017C01A501940182
:10515000C501B4010E9447909B01AC01C701B60193
:105160000E9441910E94E991D80195968D909D9061
:10517000AD90BC909897750164012D813E814F815F
:105180005885C21AD30AE40AF50A0E94BA91C61ACF
:10519000D70AE80AF90AF7FE8EC02D893E894F89A1
:1051A000588DCA01B9010E94428C6B017C01298192
:1051B0003A814B815C81CA01B9010E94479069879D
:1051C0007A878B879C8720E030E0A90169817A810A
:1051D0008B819C810E94DC8B882309F43BC1C50133
:1051E000B4010E94E18B29853A854B855C850E943C
:1051F000428CA70196010E9446906D837E838F8327
:105200009887A3019201C301B2010E94428C9B01C5
:10521000AC016D817E818F8198850E9447902B0122
:105220003C0120E030E040E850E469817A818B81E4
:105230009C810E94428C9B01AC01C301B2010E947F
:1052400041910E9425912B013C0120E030E0A90111
:105250000E94A79218161CF0412C512C3201C30158
:10526000B2010E94BA916D837E838F8398878616E0
:105270009706A806B90620F48D829E82AF82B88672
:105280006D817E818F8198850E94E18B29853A8589
:105290004B855C850E94428CA70196010E94479035
:1052A0000E94F5920E94BA9169877A878B879C87C2
:1052B000C12CD12C760169857A858B859C852989BD
:1052C0003A894B895C89621B730B840B950B0E9496
:1052D000E18B29813A814B815C810E94419120E0E0
:1052E00034E244EF59E40E94428C0E94BA914B018F
:1052F0005C0169857A858B859C852D853E854F85EA
:105300005889621B730B840B950B0E94E18B2981DA
:105310003A814B815C810E94419120E034E244EF6C
:1053200059E40E94428C0E94BA912B013C013FE655
:1053300083169104A104B10408F090C0F401EE0FAB
:10534000FF1FEE0FFF1FEF51F14F85919591A59132
:10535000B4918983292E3A2EBD8B4FE64416510411
:105360006104710408F083C0F201EE0FFF1FEE0F1D
:10537000FF1FEF51F14F45915591659174919A013D
:10538000CB014D815E816F817885D80199964D93CF
:105390005D936D937C939C974C0D5D1D6E1D7F1DE1
:1053A000F80145A756A767A770ABEB5AFF4F49898D
:1053B0005A896B897C894083518362837383D59634
:1053C0008D929D92AD92BC92D897F80141AE52AEAB
:1053D00063AE74AEFD9649814083218232825D893D
:1053E00053833496208331838283938369857A85BE
:1053F0008B859C85D1966D937D938D939C93D4974B
:1054000078962D853E854F85588920833183428348
:1054100053836C960FB6F894DEBF0FBECDBFDF91FD
:10542000CF911F910F91FF90EF90DF90CF90BF90A1
:10543000AF909F908F907F906F905F904F903F9034
:105440002F90089560E070E0CB0141CE60E070E005
:10545000CB0188CE60E070E0CB01F3CEC501B40192
:105460000E94A9126983272E382E9D8B76CFC30107
:10547000B2010E94A9129B0184CF4F925F926F925A
:105480007F92AF92BF92CF92DF92EF92FF920F93F3
:105490001F93CF93DF931092AB061092AA062FE3CF
:1054A00020930E0710920D0710920C071092D6064B
:1054B0001092D7061092D8061092D9069C01E901E5
:1054C00098812F5F3F4F9032D1F39E34C9F4898188
:1054D00090ED980F9A3020F08D3211F08B3281F4DC
:1054E00022969E012F5F3F4F888180538A3008F4B7
:1054F00070C09E012F5F3F4F8881803209F46BC0DE
:10550000D093770DC093760D7E012FEFE21AF20A49
:1055100018816AE270E0C7010E945993009731F048
:10552000FC01319780818032E1F311821D3421F03A
:10553000143511F01734F1F5F70180819FEFE91A66
:10554000F90A8032C9F380538A30A0F510930E0710
:1055500090E080E0AAE0AF014F5F5F4F2081022E14
:10556000000C330B20533109A89FB001A99F700D87
:105570001124C901860F971FFA01208120532A3078
:1055800050F390930D0780930C07DF0131962C9117
:105590002032D9F31D3459F58E31910539F0ECF4F0
:1055A0008731910519F08C31910509F5B093AB065F
:1055B000A093AA06DF91CF911F910F91FF90EF90DA
:1055C000DF90CF90BF90AF907F906F905F904F90A3
:1055D0000895E90186CFE9018CCF853791053CF02C
:1055E000873791051CF3803AE3E09E07F9F240E02B
:1055F00050E0BA0130E020E0C12CD12C7601C394F8
:10560000FD0131960C91002309F48CC00132F1F4B4
:105610001D34E1F480329105C9F44093D6065093CD
:10562000D7066093D8067093D906F093AB06E09343
:10563000AA0663E270E0CF010E945993009709F433
:10564000B9CFFC011082B6CFDF01DACF01540A31A5
:1056500008F063C0DF01BD90D0E2AD2EBA1499F01E
:10566000A0EDAB0DAA3008F1AEE2BA120EC0A181D6
:10567000A053AA30D0F02115310519F49F01215013
:105680003109B12C16C0FD01E5CFADE2AA2EBA1446
:1056900019F0ABE2BA12EFCFA181B0EDBA0FBA3078
:1056A00020F0AE3241F7A281E3CFBE2EBC1A309774
:1056B00041F3A02FB0E02601370104C0440C551C73
:1056C000661C771C0A95D2F7442955296629772943
:1056D000A557BC4FBC92A081A154AA3108F4B4CF05
:1056E000DF010191002309F48BCFD0EDBD2EB00E68
:1056F000D9E0AD2EAB14A0F7D3EDBD2EB00EAA2489
:10570000A394AB1468F70B3259F3FD0131960C9159
:10571000003209F075CFDF01F8CF21153105D9F638
:105720009D01D9CF3093AB062093AA064093D606AD
:105730005093D7066093D8067093D9063BCF8091DB
:10574000F8069091F906009731F04AE050E070E0D9
:1057500060E00C94378960E070E0CB010895CF934E
:10576000DF93EB010E94FB18882319F00E949F2B06
:10577000EB01CE01DF91CF9108950E949F2B97FD01
:105780000CC00E949F2B6F3F71058105910509F0A8
:1057900034F40E949F2B862F089580E008958FEFA8
:1057A00008950E94FB1881110C94BD2B80E0089590
:1057B000CF9384E50E94FB18C0E08823F9F00E9493
:1057C000BD2BC82F1816D4F40E940E1B8DE40E9426
:1057D000781A60910C0770910D07072E000C880B4A
:1057E000990B0E94711C6C2FCC0F770B8AEB93E006
:1057F0000E9432228AE00E94781ACFEF8C2FCF913C
:1058000008958091F8069091F906892B41F00E9445
:10581000BD2B91E0811101C090E0892F089591E0A6
:10582000FCCFCF93DF93C82FD62F0E94FB1888237D
:1058300021F0DF91CF910C94012C8C2F0E94B21893
:10584000811101C08D2FDF91CF9108950F931F9388
:10585000CF938091F8069091F9060097E9F0FC014A
:105860008F01C1912C2F2F7D81F0C53411F0C536E9
:10587000B9F7F801108270E060E00E94D987F80162
:10588000C083CF911F910F91089570E060E0CF9198
:105890001F910F910C94D98760E070E0CB01F1CF9C
:1058A0002F923F924F925F926F927F928F929F9230
:1058B000AF92BF92CF92DF92EF92FF920F931F931E
:1058C000CF93DF93CDB7DEB7CF55D1090FB6F8949C
:1058D000DEBF0FBECDBF70E060E085E40E94AF2B5D
:1058E0008B8B8F5F8230F0F081E295E00E947F1A0F
:1058F000C15ADF4F0FB6F894DEBF0FBECDBFDF91A8
:10590000CF911F910F91FF90EF90DF90CF90BF90BC
:10591000AF909F908F907F906F905F904F903F904F
:105920002F90089565E070E083E40E94AF2B182F5C
:1059300060E085E50E94112C6E968FAF6E974B88C4
:10594000C12CD12CFCE8EF2EF2E4FF2E47FC06C060
:10595000C12CD12CE6E1EE2EE3E4FE2E83E50E947D
:10596000FB18882321F00E94262C6B017C01C701C3
:10597000B6010E94B391072E000C880B990B0E9470
:10598000E38B69877A878B879C871D821E821F82A3
:1059900018860E946A106C8F7D8F8E8F9F8F2B8947
:1059A0007CE3C72ED12C2F3F19F064E1C62ED12CF9
:1059B00049845A846B847C8448AA59AA6AAA7BAA1F
:1059C0008C8D9D8DAE8DBF8D8C53964FAF4FBF4F3D
:1059D0008093E1049093E204A093E304B093E40481
:1059E0002B892F3F09F44AC2E22E220FFF08F7014C
:1059F00053E0EE0FFF1F5A95E1F7E25EFD4F66811F
:105A000077816F507109072E000C880B990B0E944B
:105A1000E38B9B01AC01C301B2010E94A79218164F
:105A20000CF0DEC389E894E061CF4B8957E1450271
:105A3000F0011124E453F24F84819581A681B7814E
:105A400042C21092CC064AC2412C512C612C9EE3DA
:105A5000792E66964CAE5DAE6EAE7FAE66972AE945
:105A6000422E29E9522E29E1622E2FE3722E6A96E8
:105A70004CAE5DAE6EAE7FAE6A975B886B965FAEE6
:105A80006B976CC2412E732C602E522CC2C2AEA5F5
:105A9000BFA51C9111963C90119712960C911297EC
:105AA00013962C90D7C20E943D190AC36D96EEAD95
:105AB000FFAD6D97808362C36BEE862E912CA12C77
:105AC000B12CF2C324E130E040E050E0288F398F60
:105AD0004A8F5B8F54E1852E912CA12CB12CF2C3FF
